:100000000C9463000C948B000C948B000C948B006C
:100010000C948B000C948B000C948B000C948B0034
:100020000C948B000C948B000C948B000C948B0024
:100030000C948B000C948B000C948B000C948B0014
:100040000C940D070C948B000C94DB060C94B506F5
:100050000C948B000C948B000C948B000C948B00F4
:100060000C948B000C948B000000000024002700EF
:100070002A0000000000250028002B0000000000DE
:1000800023002600290004040404040404040202DA
:100090000202020203030303030301020408102007
:1000A0004080010204081020010204081020000012
:1000B0000008000201000003040700000000000027
:1000C0000000070A340A11241FBECFEFD8E0DEBFBC
:1000D000CDBF11E0A0E0B1E0EEE8FAE102C005908A
:1000E0000D92AE33B107D9F721E0AEE3B1E001C024
:1000F0001D92AA3FB207E1F710E0C2E6D0E004C0CB
:100100002197FE010E94030BC136D107C9F70E9457
:1001100057070C943A0D0C940000AF92BF92CF9207
:10012000DF92EF92FF920F931F93CF93DF936C01B7
:100130007B018B01040F151FEB015E01AE18BF0898
:10014000C017D10759F06991D601ED91FC9101904A
:10015000F081E02DC6010995892B79F7C501DF9162
:10016000CF911F910F91FF90EF90DF90CF90BF90B4
:10017000AF900895FC01538D448D252F30E0842FDE
:1001800090E0821B930B541710F0CF9608950197BF
:100190000895FC01918D828D981761F0A28DAE0FAC
:1001A000BF2FB11D5D968C91928D9F5F9F73928F33
:1001B00090E008958FEF9FEF0895FC01918D828D5F
:1001C000981731F0828DE80FF11D858D90E008952C
:1001D0008FEF9FEF0895FC01918D228D892F90E084
:1001E000805C9F4F821B91098F739927089589E541
:1001F00091E00E94EB0021E0892B09F420E0822F9E
:10020000089580E090E0892B29F00E94F700811189
:100210000C9400000895FC01A48DA80FB92FB11D06
:10022000A35ABF4F2C91848D90E001968F7399272C
:10023000848FA689B7892C93A089B1898C9183700A
:1002400080648C93938D848D981306C00288F38903
:10025000E02D80818F7D80830895EF92FF920F9330
:100260001F93CF93DF93EC0181E0888F9B8D8C8D62
:1002700098131AC0E889F989808185FF15C09FB756
:10028000F894EE89FF896083E889F9898081837019
:10029000806480839FBF81E090E0DF91CF911F91C8
:1002A0000F91FF90EF900895F62E0B8D10E00F5FE9
:1002B0001F4F0F731127E02E8C8D8E110CC00FB6BF
:1002C00007FCFACFE889F989808185FFF5CFCE0157
:1002D0000E940B01F1CFEB8DEC0FFD2FF11DE35AC6
:1002E000FF4FF0829FB7F8940B8FEA89FB898081DA
:1002F0008062CFCFCF93DF93EC01888D8823B9F054
:10030000AA89BB89E889F9898C9185FD03C0808120
:1003100086FD0DC00FB607FCF7CF8C9185FFF2CF9D
:10032000808185FFEDCFCE010E940B01E9CFDF91E7
:10033000CF910895833081F028F4813099F0823094
:10034000A9F008958730A9F08830C9F08430B1F45D
:10035000809180008F7D03C0809180008F77809393
:100360008000089584B58F7784BD089584B58F7D0E
:10037000FBCF8091B0008F778093B000089580917B
:10038000B0008F7DF9CFCF93DF93282F30E0F901B4
:10039000E255FF4F8491F901E656FF4FD491F901E0
:1003A000EA57FF4FC491CC23A1F081110E949A011A
:1003B000EC2FF0E0EE0FFF1FE458FF4FA591B49132
:1003C000EC91ED2381E090E009F480E0DF91CF91A2
:1003D000089580E090E0FACF1F93CF93DF93282F0A
:1003E00030E0F901E255FF4F8491F901E656FF4FE5
:1003F000D491F901EA57FF4FC491CC23A9F0162FED
:1004000081110E949A01EC2FF0E0EE0FFF1FEE58D1
:10041000FF4FA591B4918FB7F894EC91111108C0DA
:10042000D095DE23DC938FBFDF91CF911F9108958C
:10043000DE2BF8CF1F93CF93DF93C82F162F88237F
:1004400039F0809115018230A9F5D0E0C130A1F4D6
:10045000809113018F3F59F00E94C301019739F435
:1004600060E0809113010E94EC01D1E001C0D0E076
:10047000809115018230D1F4CD7FC1F480911401B7
:100480008F3FA1F00E94C301019781F460E0809149
:1004900014010E94EC01112369F080911601882358
:1004A00069F08BEB92E10197F1F704C0112311F091
:1004B000D111F3CFDF91CF911F9108958BE193E09C
:1004C000F2CFCF93DF9390E0FC01E656FF4F2491EB
:1004D0008A579F4FFC0184918823D1F090E0880FC8
:1004E000991FFC01E859FF4FA591B491FC01EE580A
:1004F000FF4FC591D49161110EC09FB7F8948C91B4
:10050000E22FE0958E238C932881E223E8839FBF1E
:10051000DF91CF9108958FB7F894EC91E22BEC9393
:100520008FBFF6CF809113018F3F31F060E00E94C2
:1005300061028FEF80931301809114018F3F31F09E
:1005400060E00E9461028FEF809314011092150108
:1005500008951F93CF93DF93182FEB0161E00E9462
:100560006102209739F460E0812FDF91CF911F91D4
:100570000C94EC01CF3FD10511F461E0F5CFE12FF0
:10058000F0E0E255FF4FE491E33031F140F4E13027
:10059000B1F0E230E1F0C038D1057CF7E4CFE730CC
:1005A00029F1E83059F1E430B1F7809180008062A0
:1005B00080938000D0938B00C0938A0004C084B5E0
:1005C000806884BDC7BDDF91CF911F91089584B528
:1005D000806284BDC8BDF7CF809180008068809321
:1005E0008000D0938900C0938800EDCF8091B00047
:1005F00080688093B000C093B300E5CF8091B000D5
:1006000080628093B000C093B400DDCF3FB7F89410
:100610008091430190914401A0914501B091460120
:1006200026B5A89B05C02F3F19F00196A11DB11D4D
:100630003FBFBA2FA92F982F8827BC01CD01620F89
:10064000711D811D911D42E0660F771F881F991F44
:100650004A95D1F708957F928F929F92AF92BF9261
:10066000CF92DF92EF92FF920F931F93CF93DF937E
:100670008C01C62FD42F20910B0130910C01211534
:10068000310539F080910A01813089F0823009F416
:1006900082C0DF91CF911F910F91FF90EF90DF907B
:1006A000CF90BF90AF909F908F907F900895F62E3F
:1006B00080910D01F81618F5CF2CD12C80911001E6
:1006C00090911101F601EE0FFF1FE00FF11F9183D2
:1006D0008083E0910B01F0910C01EC0DFD1D61E0B8
:1006E00080810E946102E0910B01F0910C01EC0D00
:1006F000FD1D61E080810E94EC01FD0ED9CF83E2F7
:1007000090E00197F1F7F8940E9406034B01FC2E4C
:1007100080910D01F81660F4E0910B01F0910C014D
:10072000EF0DF11D60E080810E946102FD0EF0CFAF
:100730007894D12CC12C8091100190911101C81690
:10074000D90608F0A6CFF8940E9406036B01C818DA
:10075000D9087C2E80910D017816D8F4E72CF12C65
:10076000E0910B01F0910C01EE0DFF1D80810E94C4
:10077000C301892B61F4EE0CFF1CF801EE0DFF1D87
:1007800080819181C816D90610F4D182C0827D0E75
:10079000E1CF7894D0CF862F90910D01891750F436
:1007A000E82FF0E0EE0FFF1FE00FF11F1182108223
:1007B0008D0FF2CF40E080911201481770F59C2F09
:1007C00080910D01981738F5E92FF0E0D901AE0FAF
:1007D000BF1F8C918E3008F08E508770806480939C
:1007E0007C0080917A00806480937A0080917A0006
:1007F00086FDFCCFA091780060917900EE0FFF1F7D
:10080000E00FF11FB62F608171816A0F7B1F71832A
:1008100060839D0FD5CF4F5FCECF80910D01C8175C
:1008200008F037CFEC2FF0E0EE0FFF1FE00FF11FC5
:100830006091120170E0CB019595879520813181FF
:10084000820F931F0E949C0A71836083CD0FE5CFB6
:100850008F929F92AF92BF92CF92DF92EF92FF92D0
:100860004B015C010E9406036B017C010E940603A0
:100870006C197D098E099F09683E734081059105B9
:10088000A8F321E0821A9108A108B10888EEC80EE9
:1008900083E0D81EE11CF11C81149104A104B10471
:1008A00029F7FF90EF90DF90CF90BF90AF909F908F
:1008B0008F900895CF92DF92EF92FF92CF93DF93C4
:1008C000C82F80911601882369F08C2F0E94C301E4
:1008D000019741F460E08C2F0E94EC018BEB92E1D8
:1008E0000197F1F761E08C2F0E94EC010E94060352
:1008F0006B01809116018823A9F08091170188234C
:1009000089F0F894D0E080911701D81750F460E096
:100910008C2F0E94EC0161E08C2F0E94EC01DF5FC4
:10092000F2CF7894C601DF91CF91FF90EF90DF90E6
:10093000CF9008950F931F93CF93DF93C82F8823F1
:1009400059F180911501823029F1D0E08091150193
:100950008230D1F5CD7FC1F5809114018F3FA1F197
:1009600090911601992361F1809114010E945A041B
:100970008C0180911601882371F1C3E2D0E00E94BE
:100980000603601B710B6C32714000F5CE010197BC
:10099000F1F7F5CFC130C9F6809113018F3FA9F26D
:1009A00090911601992339F0809113010E945A0405
:1009B0008C01D1E0CBCF0E94C301892BA9F3C5CF15
:1009C0000E94C301892B81F2D111D3CFDF91CF9146
:1009D0001F910F9108958BE193E00197F1F7F6CF06
:1009E000FC0101900020E9F73197AF01481B590B3A
:1009F000BC0189E591E00C948D008F929F92AF929B
:100A0000BF920F931F93CF93DF93CDB7DEB7A1971C
:100A10000FB6F894DEBF0FBECDBF19A2423008F466
:100A20004AE08E010F5D1F4F842E912CB12CA12C1A
:100A3000A50194010E94B00AE62FB901CA01EA306B
:100A4000F4F4E05DD801EE938D01232B242B252BAC
:100A500079F790E080E0109719F0CD010E94F00442
:100A6000A1960FB6F894DEBF0FBECDBFDF91CF9138
:100A70001F910F91BF90AF909F908F900895E95C68
:100A8000E1CF8F929F92AF92BF92CF92DF92EF927F
:100A9000FF920F931F93CF93DF93CDB7DEB7C85F5D
:100AA000D1090FB6F894DEBF0FBECDBF8C01D62E94
:100AB000DC018C91811157C01396ED90FC906091F0
:100AC0000D0170E0660F771FC7010E943D0CF80111
:100AD00094838383892BB9F4C7010E94B40BC85057
:100AE000DF4F0FB6F894DEBF0FBECDBFDF91CF91C1
:100AF0001F910F91FF90EF90DF90CF90BF90AF903C
:100B00009F908F900895E180F28060910D0170E0D8
:100B1000660F771FC7010E943D0CAC01F80192835C
:100B2000818390E041155105B9F280910D0198172C
:100B3000B8F4292F30E0220F331FD8011396ED911E
:100B4000FC91E20FF31F11821082609110017091ED
:100B50001101240F351FF901718360839F5FE5CF79
:100B600081E0D8018C93C12C43E2E42EF12CB1E05A
:100B7000DB1638F0E2E0ED15D0F5F3E0DF1609F40E
:100B80006DC061E080E00E941A0241E060E0CE01A9
:100B900085549F4F0E942B03A0900D014E018FE3BF
:100BA000880E911CFE01E358FF4F9E0125543F4FD4
:100BB000B12CAF01AB1409F4A1C0D9018D919D9165
:100BC0009D01CC2009F492C060817181681779077A
:100BD00008F48CC0D4016D917C918617970708F4B6
:100BE00089C0B394B2E08B0E911C3296E3CF80E0C3
:100BF0000E949A0441E060E0CE0185549F4F0E941C
:100C00002B0361E080E00E941A02A2E0DA12C4CF56
:100C100041E060E0CE0101960E942B0370910D012E
:100C20002091100130911101FE01E554FF4FDE01CA
:100C3000119660E0761709F4AFCF4D915D918081F8
:100C40009181820F931F841B950B2817390708F495
:100C50004AC0918380836F5F3296ECCF60E082E080
:100C60000E941A020E9406034B0181E00E949A042E
:100C700080911601882359F00E94060368197909AA
:100C8000603B744020F4C7010197F1F7F5CF42E0D3
:100C900060E0CE0185549F4F0E942B0360E081E00D
:100CA0000E941A020E9406034B0182E00E949A04ED
:100CB00080911601882359F00E940603681979096A
:100CC000603B744020F4C7010197F1F7F5CF42E093
:100CD00061E0CE0185549F4F0E942B0361E080E0CC
:100CE0000E941A0259CF31832083B5CF918380832C
:100CF000C11070CFD4018D939C9373CFC394EAE05D
:100D0000CE1235CF20E080910D01281708F0E7CEF4
:100D1000822F90E0880F991FE1E0F0E0EC0FFD1FBB
:100D2000E80FF91F66AD77ADD8011396ED91FC91F0
:100D3000E80FF91FA081B181A617B70710F47183DE
:100D40006083FA01E80FF91F60817181D801119663
:100D5000ED91FC91E80FF91F808191816817790767
:100D600010F4718360832F5FCECF1F920F920FB666
:100D70000F9211242F933F934F935F936F937F9321
:100D80008F939F93AF93BF93EF93FF9389E591E088
:100D90000E940B01FF91EF91BF91AF919F918F91B5
:100DA0007F916F915F914F913F912F910F900FBE67
:100DB0000F901F9018951F920F920FB60F9211244B
:100DC0002F938F939F93EF93FF93E0916901F0919D
:100DD0006A018081E0916F01F091700182FD1BC07A
:100DE0009081809172018F5F8F73209173018217C0
:100DF00041F0E0917201F0E0E75AFE4F958F809349
:100E00007201FF91EF919F918F912F910F900FBEE3
:100E10000F901F9018958081F4CF1F920F920FB6FC
:100E20000F9211242F933F938F939F93AF93BF9370
:100E300080913F0190914001A0914101B091420108
:100E400030913E0123E0230F2D3758F50196A11D67
:100E5000B11D20933E0180933F0190934001A093E8
:100E60004101B09342018091430190914401A091CE
:100E70004501B09146010196A11DB11D809343012A
:100E800090934401A0934501B0934601BF91AF9167
:100E90009F918F913F912F910F900FBE0F901F90B8
:100EA000189526E8230F0296A11DB11DD2CFCF932E
:100EB000DF9300D01F92CDB7DEB7789484B58260FF
:100EC00084BD84B5816084BD85B5826085BD85B5EE
:100ED000816085BD80916E00816080936E0010926C
:100EE00081008091810082608093810080918100E7
:100EF0008160809381008091800081608093800078
:100F00008091B10084608093B1008091B0008160D5
:100F10008093B00080917A00846080937A00809101
:100F20007A00826080937A0080917A008160809359
:100F30007A0080917A00806880937A001092C100D4
:100F4000E0916901F0916A0192E09083E09165017E
:100F5000F09166011082E0916701F09168018FECD9
:100F6000808310927101E0916D01F0916E0186E035
:100F70008083E0916B01F0916C01808180618083BE
:100F8000E0916B01F0916C01808188608083E09139
:100F90006B01F0916C01808180688083E0916B012E
:100FA000F0916C0180818F7D808390930A018FEF97
:100FB00093E0909311018093100120910B013091E7
:100FC0000C013B832A8366E070E0C9010E943D0C5E
:100FD00090930C0180930B01892B09F0EFC08A815B
:100FE0009B810E94B40B0E9492028CE080931301BB
:100FF00061E00E94610281E08093150164EF71E07D
:1010000080E090E00E94280461E08DE00E9461028F
:1010100061E08DE00E94EC0161E082E00E946102EB
:1010200061E083E00E94610261E089E00E94610268
:1010300061E085E00E94610261E084E00E9461025B
:1010400061E08AE00E94610280E991E09B838A83EB
:1010500061E080E091E00E944105AA81BB81119787
:10106000BB83AA83AB2BA1F760E08DE00E94EC016B
:1010700010E000E0E0910101F0910201E00FF11FAA
:101080006081718190E080E04AE00E94FD0460E2AE
:1010900089E591E00E942D010E5F1F4F0C30110574
:1010A00049F788E391E00E94F004E0910301F09198
:1010B00004012A813B81E20FF31F6081718190E07E
:1010C00080E04AE00E94FD0460E289E591E00E9430
:1010D0002D018A819B8102969B838A830C9729F735
:1010E00088E391E00E94F00488E391E00E94F0041C
:1010F00068EE73E080E090E00E94280488EEE82E1D
:1011000083E0F82E94EFC92EDD24D39429E5222E16
:1011100021E0322E80910001882309F467C080E02D
:101120000E949A0441E060E08DE491E00E942B036C
:1011300061E080E00E941A0280900D01ADE4B1E010
:10114000BB83AA830091030110910401A0900101C7
:10115000B0900201912C891409F448C0D801ED9196
:10116000FD918D01D5018D919D915D01E81BF90BDC
:10117000D9F0AA81BB812D913C9150E040E0281B21
:10118000390B41095109A8EEB3E00E94F80A9F010A
:1011900050E040E00E94D20A293EB3E03B0714F041
:1011A00028EE33E037FF02C030E020E0EA81FB8127
:1011B00021933193FB83EA839394CDCFA2E3B1E0F3
:1011C00090E080E02D91E0910B01F0910C01E80F8F
:1011D000F91F2083019686309105A1F786E0809360
:1011E0000D011092000110920501FDCE90900D01AD
:1011F0002DE431E03B832A83590110E000E0812C8B
:1012000050E040E0412C512C320119829814D9F061
:10121000D501ED91FD915D01E93CF10588F4E333E1
:10122000F10550F09F01D8010E94F10A460E571EA9
:10123000681E791E4E0F5F1F839408511C4FE6CF26
:10124000B1E0B983EFCFE981E1117CC0292D2150B4
:10125000330BC9018C9D90018D9D300D9C9D300DEF
:101260001124409118015091190110E000E042173B
:10127000530738F08E9D80018F9D100D9E9D100D9F
:101280001124AA81BB816D917D91BB83AA8390E0DB
:1012900080E04AE00E94FD048BE391E00E94F004AC
:1012A000EA81FB812E163F0661F7B80190E080E0ED
:1012B0004AE00E94FD0488E391E00E94F00489E581
:1012C00091E00E94C90090934801809347018133C7
:1012D000910509F044C064E670E089E00E94A9022B
:1012E00060E082E00E94EC0161E083E00E94EC019A
:1012F00064E670E08AE00E94A90260E085E00E9456
:10130000EC0161E084E00E94EC016CEA7DE0601B8E
:10131000710B90E080E00E945F0A60934901709336
:101320004A0180934B0190934C0120E030E0232B45
:1013300009F4F0CE0E94F700882309F4EBCE0E9456
:101340000000E8CE9A0150E040E0C301B2010E94E3
:10135000B00A8901309319012093180192CF80338C
:10136000910581F470E060E089E00E94A90260E0EC
:1013700082E00E94EC0161E083E00E94EC0170E0F9
:1013800060E0B8CF82339105C1F464E670E089E093
:101390000E94A90261E082E00E94EC0160E083E02B
:1013A0000E94EC0164E670E08AE00E94A90261E01C
:1013B00085E00E94EC0160E0A5CF8333910559F4EC
:1013C00064E670E089E00E94A90260E082E00E9489
:1013D000EC0161E0E4CFC49709F097CF64E670E0D8
:1013E0008AE00E94A90260E085E00E94EC0161E0D1
:1013F00084E00E94EC0164E670E089E00E94A902AA
:1014000061E082E00E94EC0160E083E07CCFE9E5EE
:10141000F1E01382128288EE93E0A0E0B0E08483D2
:101420009583A683B78384E291E09183808385ECE2
:1014300090E09587848784EC90E09787868780EC9E
:1014400090E0918B808B81EC90E0938B828B82EC8F
:1014500090E0958B848B86EC90E0978B868B118E39
:10146000128E138E148E08950E94920280910B01A9
:1014700090910C01009711F00E94B40B8091030130
:1014800090910401009711F00E94B40B8091080123
:1014900090910901009711F00E94B40B8091010115
:1014A00090910201009711F00E94B40B8091060107
:1014B00090910701009711F00C94B40B0895E894F3
:1014C00009C097FB3EF490958095709561957F4F8C
:1014D0008F4F9F4F9923A9F0F92F96E9BB2793953A
:1014E000F695879577956795B795F111F8CFFAF44A
:1014F000BB0F11F460FF1BC06F5F7F4F8F4F9F4F7B
:1015000016C0882311F096E911C0772321F09EE8D8
:10151000872F762F05C0662371F096E8862F70E03E
:1015200060E02AF09A95660F771F881FDAF7880F18
:101530009695879597F90895AA1BBB1B51E107C0A3
:10154000AA1FBB1FA617B70710F0A61BB70B881F53
:10155000991F5A95A9F780959095BC01CD010895E2
:10156000A1E21A2EAA1BBB1BFD010DC0AA1FBB1FA7
:10157000EE1FFF1FA217B307E407F50720F0A21B19
:10158000B30BE40BF50B661F771F881F991F1A9486
:1015900069F760957095809590959B01AC01BD01B0
:1015A000CF010895052E97FB1EF400940E94E90ACE
:1015B00057FD07D00E94B00A07FC03D04EF40C94EC
:1015C000E90A50954095309521953F4F4F4F5F4F19
:1015D000089590958095709561957F4F8F4F9F4F9F
:1015E00008950E94090BB7FF0895821B930B08957D
:1015F0000E94090BA59F900DB49F900DA49F800D94
:10160000911D11240895EE0FFF1F0590F491E02D18
:101610000994A29FB001B39FC001A39F700D811DCB
:101620001124911DB29F700D811D1124911D0895EB
:101630000F931F93CF93DF938230910510F482E0D4
:1016400090E0E091F801F091F90130E020E0B0E0A5
:10165000A0E0309799F42115310509F44AC0281B00
:10166000390B24303105D8F58A819B8161157105CC
:1016700089F1FB0193838283FE0111C04081518176
:101680000281138148175907E0F04817590799F468
:10169000109761F012960C93129713961C93329642
:1016A000CF01DF91CF911F910F9108950093F80121
:1016B0001093F901F4CF2115310551F0421753076A
:1016C00038F0A901DB019A01BD01DF01F801C1CFAA
:1016D000EF01F9CF9093F9018093F801CDCFFE018E
:1016E000E20FF31F819391932250310939832883AC
:1016F000D7CF2091F6013091F701232B41F42091AF
:101700001C0130911D013093F7012093F6012091C7
:101710001A0130911B012115310541F42DB73EB757
:1017200040911E0150911F01241B350BE091F601E1
:10173000F091F701E217F307A0F42E1B3F0B2817D7
:10174000390778F0AC014E5F5F4F2417350748F03A
:101750004E0F5F1F5093F7014093F60181939193D1
:101760009FCFF0E0E0E09CCFCF93DF930097E9F0CC
:10177000FC01329713821282A091F801B091F90115
:10178000ED0130E020E01097A1F420813181820F3B
:10179000931F2091F6013091F7012817390709F0BE
:1017A00061C0F093F701E093F601DF91CF910895C6
:1017B000EA01CE17DF07E8F54A815B819E014115FA
:1017C0005105B1F7E901FB83EA8349915991C40FAF
:1017D000D51FEC17FD0761F4808191810296840F7B
:1017E000951FE90199838883828193819B838A83F2
:1017F000F0E0E0E012968D919C9113970097B9F577
:101800002D913C911197CD010296820F931F20914B
:10181000F6013091F7012817390739F6309751F55D
:101820001092F9011092F801B093F701A093F6011C
:10183000BCCFD383C28340815181840F951FC817C9
:10184000D90761F44E5F5F4F88819981480F591F16
:10185000518340838A819B81938382832115310543
:1018600009F0B0CFF093F901E093F8019ECFFD01AC
:10187000DC01C0CF13821282D7CFB0E0A0E0E3E456
:10188000FCE00C94050D8C01009751F4CB010E94F3
:10189000180B8C01C801CDB7DEB7E0E10C94210D27
:1018A000FC01E60FF71F9C0122503109E217F307F4
:1018B00008F49DC0D901CD91DC911197C617D707C7
:1018C00098F0C530D10530F3CE01049786179707FD
:1018D00008F3C61BD70B2297C193D1936D937C93CA
:1018E000CF010E94B40BD6CF5B01AC1ABD0A4C01EC
:1018F0008C0E9D1EA091F801B091F901512C412C44
:10190000F12CE12C109731F58091F6019091F701BF
:101910008815990509F05CC04616570608F058C0AE
:1019200080911A0190911B01009741F48DB79EB7E9
:1019300040911E0150911F01841B950BE817F90778
:1019400008F055C0F093F701E093F601F9017183B7
:101950006083A0CF8D919C91119712966C901297F5
:1019600013967C901397A815B90559F56C0142E0C0
:10197000C40ED11CCA14DB0420F1AC014A195B0966
:10198000DA011296159780F0628273825183408348
:10199000D9016D937C93E114F10471F0D701139692
:1019A000FC93EE93129776CF22968C0F9D1FF90130
:1019B00091838083F301EFCFF093F901E093F80175
:1019C00069CF4816590608F42C017D01D3019ACF3E
:1019D000CB010E94180B7C01009749F0AE01B801C1
:1019E0000E94FA0CC8010E94B40B870153CF10E08B
:1019F00000E050CFFB01DC0102C001900D9241508C
:101A00005040D8F708952F923F924F925F926F9275
:101A10007F928F929F92AF92BF92CF92DF92EF927E
:101A2000FF920F931F93CF93DF93CDB7DEB7CA1BFF
:101A3000DB0B0FB6F894DEBF0FBECDBF09942A882A
:101A4000398848885F846E847D848C849B84AA84D2
:101A5000B984C884DF80EE80FD800C811B81AA815F
:101A6000B981CE0FD11D0FB6F894DEBF0FBECDBF2A
:101A7000ED01089510E0C2E6D0E004C0FE010E942E
:0E1A8000030B2196C336D107C9F7F894FFCFA8
:101A8E000000000000000000000000000000C4097B
:101A9E00C40904FFFF00010000000000FA018000ED
:101AAE00000000002D018D00BA007A01EB00C90084
:0E1ABE00DD000E0F101112130D0A007C000047
:00000001FF
